{
  "_format": "hh-sol-artifact-1",
  "contractName": "Ticket",
  "sourceName": "contracts/Ticket.sol",
  "abi": [
    {
      "inputs": [],
      "stateMutability": "nonpayable",
      "type": "constructor"
    },
    {
      "inputs": [],
      "name": "ContractBalance",
      "outputs": [
        {
          "internalType": "uint256",
          "name": "",
          "type": "uint256"
        }
      ],
      "stateMutability": "view",
      "type": "function"
    },
    {
      "inputs": [
        {
          "internalType": "address",
          "name": "to",
          "type": "address"
        },
        {
          "internalType": "uint256",
          "name": "quantity",
          "type": "uint256"
        },
        {
          "internalType": "uint256",
          "name": "_eventId",
          "type": "uint256"
        },
        {
          "internalType": "string",
          "name": "_eventName",
          "type": "string"
        }
      ],
      "name": "TransferTickets",
      "outputs": [],
      "stateMutability": "nonpayable",
      "type": "function"
    },
    {
      "inputs": [
        {
          "internalType": "uint256",
          "name": "",
          "type": "uint256"
        }
      ],
      "name": "allEvents",
      "outputs": [
        {
          "internalType": "uint256",
          "name": "id",
          "type": "uint256"
        },
        {
          "internalType": "string",
          "name": "name",
          "type": "string"
        },
        {
          "internalType": "string",
          "name": "venue",
          "type": "string"
        },
        {
          "internalType": "uint256",
          "name": "time",
          "type": "uint256"
        },
        {
          "internalType": "uint256",
          "name": "totalTkts",
          "type": "uint256"
        },
        {
          "internalType": "uint256",
          "name": "availTkts",
          "type": "uint256"
        },
        {
          "internalType": "uint256",
          "name": "tktPrice",
          "type": "uint256"
        },
        {
          "internalType": "address",
          "name": "owner",
          "type": "address"
        }
      ],
      "stateMutability": "view",
      "type": "function"
    },
    {
      "inputs": [
        {
          "internalType": "address",
          "name": "user",
          "type": "address"
        },
        {
          "internalType": "uint256",
          "name": "eventId",
          "type": "uint256"
        }
      ],
      "name": "checkTickets",
      "outputs": [
        {
          "internalType": "uint256",
          "name": "",
          "type": "uint256"
        }
      ],
      "stateMutability": "view",
      "type": "function"
    },
    {
      "inputs": [
        {
          "internalType": "string",
          "name": "_name",
          "type": "string"
        },
        {
          "internalType": "string",
          "name": "_venue",
          "type": "string"
        },
        {
          "internalType": "uint256",
          "name": "_time",
          "type": "uint256"
        },
        {
          "internalType": "uint256",
          "name": "_totalTkts",
          "type": "uint256"
        },
        {
          "internalType": "uint256",
          "name": "_tktPrice",
          "type": "uint256"
        }
      ],
      "name": "createEvent",
      "outputs": [],
      "stateMutability": "payable",
      "type": "function"
    },
    {
      "inputs": [],
      "name": "developer",
      "outputs": [
        {
          "internalType": "address",
          "name": "",
          "type": "address"
        }
      ],
      "stateMutability": "view",
      "type": "function"
    },
    {
      "inputs": [
        {
          "internalType": "uint256",
          "name": "eventId",
          "type": "uint256"
        },
        {
          "internalType": "string",
          "name": "eventName",
          "type": "string"
        }
      ],
      "name": "getSoldtktAmount",
      "outputs": [],
      "stateMutability": "nonpayable",
      "type": "function"
    },
    {
      "inputs": [
        {
          "internalType": "uint256",
          "name": "_eventIndex",
          "type": "uint256"
        },
        {
          "internalType": "string",
          "name": "_eventName",
          "type": "string"
        },
        {
          "internalType": "uint256",
          "name": "_tkts",
          "type": "uint256"
        }
      ],
      "name": "purchaseTkt",
      "outputs": [],
      "stateMutability": "payable",
      "type": "function"
    },
    {
      "inputs": [
        {
          "internalType": "uint256",
          "name": "_id",
          "type": "uint256"
        }
      ],
      "name": "searchEventById",
      "outputs": [
        {
          "components": [
            {
              "internalType": "uint256",
              "name": "id",
              "type": "uint256"
            },
            {
              "internalType": "string",
              "name": "name",
              "type": "string"
            },
            {
              "internalType": "string",
              "name": "venue",
              "type": "string"
            },
            {
              "internalType": "uint256",
              "name": "time",
              "type": "uint256"
            },
            {
              "internalType": "uint256",
              "name": "totalTkts",
              "type": "uint256"
            },
            {
              "internalType": "uint256",
              "name": "availTkts",
              "type": "uint256"
            },
            {
              "internalType": "uint256",
              "name": "tktPrice",
              "type": "uint256"
            },
            {
              "internalType": "address",
              "name": "owner",
              "type": "address"
            }
          ],
          "internalType": "struct Ticket.Event",
          "name": "",
          "type": "tuple"
        }
      ],
      "stateMutability": "view",
      "type": "function"
    },
    {
      "inputs": [
        {
          "internalType": "string",
          "name": "_name",
          "type": "string"
        }
      ],
      "name": "searchEventByName",
      "outputs": [
        {
          "components": [
            {
              "internalType": "uint256",
              "name": "id",
              "type": "uint256"
            },
            {
              "internalType": "string",
              "name": "name",
              "type": "string"
            },
            {
              "internalType": "string",
              "name": "venue",
              "type": "string"
            },
            {
              "internalType": "uint256",
              "name": "time",
              "type": "uint256"
            },
            {
              "internalType": "uint256",
              "name": "totalTkts",
              "type": "uint256"
            },
            {
              "internalType": "uint256",
              "name": "availTkts",
              "type": "uint256"
            },
            {
              "internalType": "uint256",
              "name": "tktPrice",
              "type": "uint256"
            },
            {
              "internalType": "address",
              "name": "owner",
              "type": "address"
            }
          ],
          "internalType": "struct Ticket.Event",
          "name": "",
          "type": "tuple"
        }
      ],
      "stateMutability": "view",
      "type": "function"
    },
    {
      "inputs": [
        {
          "internalType": "address",
          "name": "",
          "type": "address"
        },
        {
          "internalType": "uint256",
          "name": "",
          "type": "uint256"
        }
      ],
      "name": "tktHolders",
      "outputs": [
        {
          "internalType": "uint256",
          "name": "",
          "type": "uint256"
        }
      ],
      "stateMutability": "view",
      "type": "function"
    },
    {
      "inputs": [],
      "name": "totalEvents",
      "outputs": [
        {
          "internalType": "uint256",
          "name": "",
          "type": "uint256"
        }
      ],
      "stateMutability": "view",
      "type": "function"
    },
    {
      "inputs": [
        {
          "internalType": "uint256",
          "name": "_bal",
          "type": "uint256"
        }
      ],
      "name": "withdrawBalance",
      "outputs": [],
      "stateMutability": "nonpayable",
      "type": "function"
    }
  ],
  "bytecode": "0x60a060405234801561001057600080fd5b503373ffffffffffffffffffffffffffffffffffffffff1660808173ffffffffffffffffffffffffffffffffffffffff16815250506080516124e36100676000396000818161138601526113ef01526124e36000f3fe6080604052600436106100c25760003560e01c80635282fc001161007f578063b5eb8f5611610059578063b5eb8f5614610277578063ba870686146102b4578063ca4b208b146102df578063da76d5cd1461030a576100c2565b80635282fc00146101e8578063860cfe9114610211578063887ff9a81461024e576100c2565b8063241c5cd0146100c757806325c6bfe3146101045780632f88d5c7146101205780633b6680591461015d5780633bec5cff146101885780633c2fc56c146101cc575b600080fd5b3480156100d357600080fd5b506100ee60048036038101906100e991906117a2565b610333565b6040516100fb91906117f1565b60405180910390f35b61011e60048036038101906101199190611952565b610358565b005b34801561012c57600080fd5b50610147600480360381019061014291906117a2565b6104e0565b60405161015491906117f1565b60405180910390f35b34801561016957600080fd5b5061017261054e565b60405161017f91906117f1565b60405180910390f35b34801561019457600080fd5b506101af60048036038101906101aa91906119c1565b610558565b6040516101c3989796959493929190611a7c565b60405180910390f35b6101e660048036038101906101e19190611b08565b6106d0565b005b3480156101f457600080fd5b5061020f600480360381019061020a9190611bbb565b610873565b005b34801561021d57600080fd5b50610238600480360381019061023391906119c1565b610b20565b6040516102459190611d36565b60405180910390f35b34801561025a57600080fd5b5061027560048036038101906102709190611d58565b610d7e565b005b34801561028357600080fd5b5061029e60048036038101906102999190611ddb565b6110a9565b6040516102ab9190611d36565b60405180910390f35b3480156102c057600080fd5b506102c961137e565b6040516102d691906117f1565b60405180910390f35b3480156102eb57600080fd5b506102f4611384565b6040516103019190611e24565b60405180910390f35b34801561031657600080fd5b50610331600480360381019061032c91906119c1565b6113a8565b005b6002602052816000526040600020602052806000526040600020600091509150505481565b600115156103668484611457565b1515146103a8576040517f08c379a000000000000000000000000000000000000000000000000000000000815260040161039f90611e8b565b60405180910390fd5b60006001600085815260200190815260200160002090508181600501541015610406576040517f08c379a00000000000000000000000000000000000000000000000000000000081526004016103fd90611ef7565b60405180910390fd5b348282600601546104179190611f46565b1115610458576040517f08c379a000000000000000000000000000000000000000000000000000000000815260040161044f90611fd4565b60405180910390fd5b8181600501600082825461046c9190611ff4565b9250508190555081600260003373ffffffffffffffffffffffffffffffffffffffff1673ffffffffffffffffffffffffffffffffffffffff168152602001908152602001600020600086815260200190815260200160002060008282546104d39190612028565b9250508190555050505050565b6000805482106104ef57600080fd5b6000600260008573ffffffffffffffffffffffffffffffffffffffff1673ffffffffffffffffffffffffffffffffffffffff16815260200190815260200160002060008481526020019081526020016000205490508091505092915050565b6000600354905090565b60016020528060005260406000206000915090508060000154908060010180546105819061208b565b80601f01602080910402602001604051908101604052809291908181526020018280546105ad9061208b565b80156105fa5780601f106105cf576101008083540402835291602001916105fa565b820191906000526020600020905b8154815290600101906020018083116105dd57829003601f168201915b50505050509080600201805461060f9061208b565b80601f016020809104026020016040519081016040528092919081815260200182805461063b9061208b565b80156106885780601f1061065d57610100808354040283529160200191610688565b820191906000526020600020905b81548152906001019060200180831161066b57829003601f168201915b5050505050908060030154908060040154908060050154908060060154908060070160009054906101000a900473ffffffffffffffffffffffffffffffffffffffff16905088565b66038d7ea4c6800034101561071a576040517f08c379a000000000000000000000000000000000000000000000000000000000815260040161071190612108565b60405180910390fd5b82421061072657600080fd5b600060405180610100016040528060005481526020018781526020018681526020018581526020018481526020018481526020018381526020013373ffffffffffffffffffffffffffffffffffffffff1681525090508060016000805481526020019081526020016000206000820151816000015560208201518160010190816107b091906122d4565b5060408201518160020190816107c691906122d4565b50606082015181600301556080820151816004015560a0820151816005015560c0820151816006015560e08201518160070160006101000a81548173ffffffffffffffffffffffffffffffffffffffff021916908373ffffffffffffffffffffffffffffffffffffffff160217905550905050600160008082825461084b9190612028565b9250508190555034600360008282546108649190612028565b92505081905550505050505050565b600115156108818383611457565b15151461088d57600080fd5b60006001600084815260200190815260200160002060405180610100016040529081600082015481526020016001820180546108c89061208b565b80601f01602080910402602001604051908101604052809291908181526020018280546108f49061208b565b80156109415780601f1061091657610100808354040283529160200191610941565b820191906000526020600020905b81548152906001019060200180831161092457829003601f168201915b5050505050815260200160028201805461095a9061208b565b80601f01602080910402602001604051908101604052809291908181526020018280546109869061208b565b80156109d35780601f106109a8576101008083540402835291602001916109d3565b820191906000526020600020905b8154815290600101906020018083116109b657829003601f168201915b50505050508152602001600382015481526020016004820154815260200160058201548152602001600682015481526020016007820160009054906101000a900473ffffffffffffffffffffffffffffffffffffffff1673ffffffffffffffffffffffffffffffffffffffff1673ffffffffffffffffffffffffffffffffffffffff1681525050905080606001514211610a6c57600080fd5b3373ffffffffffffffffffffffffffffffffffffffff168160e0015173ffffffffffffffffffffffffffffffffffffffff1614610aa857600080fd5b60008160c001518260a001518360800151610ac39190611ff4565b610acd9190611f46565b90508160e0015173ffffffffffffffffffffffffffffffffffffffff166108fc829081150290604051600060405180830381858888f19350505050158015610b19573d6000803e3d6000fd5b5050505050565b610b2861169f565b6000548210610bab5760405180610100016040528060008152602001604051806020016040528060008152508152602001604051806020016040528060008152508152602001600081526020016000815260200160008152602001600081526020013373ffffffffffffffffffffffffffffffffffffffff168152509050610d79565b600160008381526020019081526020016000206040518061010001604052908160008201548152602001600182018054610be49061208b565b80601f0160208091040260200160405190810160405280929190818152602001828054610c109061208b565b8015610c5d5780601f10610c3257610100808354040283529160200191610c5d565b820191906000526020600020905b815481529060010190602001808311610c4057829003601f168201915b50505050508152602001600282018054610c769061208b565b80601f0160208091040260200160405190810160405280929190818152602001828054610ca29061208b565b8015610cef5780601f10610cc457610100808354040283529160200191610cef565b820191906000526020600020905b815481529060010190602001808311610cd257829003601f168201915b50505050508152602001600382015481526020016004820154815260200160058201548152602001600682015481526020016007820160009054906101000a900473ffffffffffffffffffffffffffffffffffffffff1673ffffffffffffffffffffffffffffffffffffffff1673ffffffffffffffffffffffffffffffffffffffff168152505090505b919050565b60011515610d8c8383611457565b151514610d9857600080fd5b82600260003373ffffffffffffffffffffffffffffffffffffffff1673ffffffffffffffffffffffffffffffffffffffff1681526020019081526020016000206000848152602001908152602001600020541015610df557600080fd5b6000600160008481526020019081526020016000206040518061010001604052908160008201548152602001600182018054610e309061208b565b80601f0160208091040260200160405190810160405280929190818152602001828054610e5c9061208b565b8015610ea95780601f10610e7e57610100808354040283529160200191610ea9565b820191906000526020600020905b815481529060010190602001808311610e8c57829003601f168201915b50505050508152602001600282018054610ec29061208b565b80601f0160208091040260200160405190810160405280929190818152602001828054610eee9061208b565b8015610f3b5780601f10610f1057610100808354040283529160200191610f3b565b820191906000526020600020905b815481529060010190602001808311610f1e57829003601f168201915b50505050508152602001600382015481526020016004820154815260200160058201548152602001600682015481526020016007820160009054906101000a900473ffffffffffffffffffffffffffffffffffffffff1673ffffffffffffffffffffffffffffffffffffffff1673ffffffffffffffffffffffffffffffffffffffff1681525050905042816060015111610fd457600080fd5b83600260003373ffffffffffffffffffffffffffffffffffffffff1673ffffffffffffffffffffffffffffffffffffffff168152602001908152602001600020600085815260200190815260200160002060008282546110349190611ff4565b9250508190555083600260008773ffffffffffffffffffffffffffffffffffffffff1673ffffffffffffffffffffffffffffffffffffffff1681526020019081526020016000206000858152602001908152602001600020600082825461109b9190612028565b925050819055505050505050565b6110b161169f565b60005b6000548110156113025760006001600083815260200190815260200160002060405180610100016040529081600082015481526020016001820180546110f99061208b565b80601f01602080910402602001604051908101604052809291908181526020018280546111259061208b565b80156111725780601f1061114757610100808354040283529160200191611172565b820191906000526020600020905b81548152906001019060200180831161115557829003601f168201915b5050505050815260200160028201805461118b9061208b565b80601f01602080910402602001604051908101604052809291908181526020018280546111b79061208b565b80156112045780601f106111d957610100808354040283529160200191611204565b820191906000526020600020905b8154815290600101906020018083116111e757829003601f168201915b50505050508152602001600382015481526020016004820154815260200160058201548152602001600682015481526020016007820160009054906101000a900473ffffffffffffffffffffffffffffffffffffffff1673ffffffffffffffffffffffffffffffffffffffff1673ffffffffffffffffffffffffffffffffffffffff1681525050905080602001516040516020016112a291906123e2565b60405160208183030381529060405280519060200120846040516020016112c991906123e2565b60405160208183030381529060405280519060200120036112ee578092505050611379565b5080806112fa906123f9565b9150506110b4565b5060405180610100016040528060008152602001604051806020016040528060008152508152602001604051806020016040528060008152508152602001600081526020016000815260200160008152602001600081526020013373ffffffffffffffffffffffffffffffffffffffff1681525090505b919050565b60005481565b7f000000000000000000000000000000000000000000000000000000000000000081565b6003548111156113ed576040517f08c379a00000000000000000000000000000000000000000000000000000000081526004016113e49061248d565b60405180910390fd5b7f000000000000000000000000000000000000000000000000000000000000000073ffffffffffffffffffffffffffffffffffffffff166108fc829081150290604051600060405180830381858888f19350505050158015611453573d6000803e3d6000fd5b5050565b6000805483101561169457600060016000858152602001908152602001600020604051806101000160405290816000820154815260200160018201805461149d9061208b565b80601f01602080910402602001604051908101604052809291908181526020018280546114c99061208b565b80156115165780601f106114eb57610100808354040283529160200191611516565b820191906000526020600020905b8154815290600101906020018083116114f957829003601f168201915b5050505050815260200160028201805461152f9061208b565b80601f016020809104026020016040519081016040528092919081815260200182805461155b9061208b565b80156115a85780601f1061157d576101008083540402835291602001916115a8565b820191906000526020600020905b81548152906001019060200180831161158b57829003601f168201915b50505050508152602001600382015481526020016004820154815260200160058201548152602001600682015481526020016007820160009054906101000a900473ffffffffffffffffffffffffffffffffffffffff1673ffffffffffffffffffffffffffffffffffffffff1673ffffffffffffffffffffffffffffffffffffffff16815250509050806020015160405160200161164691906123e2565b604051602081830303815290604052805190602001208360405160200161166d91906123e2565b6040516020818303038152906040528051906020012003611692576001915050611699565b505b600090505b92915050565b60405180610100016040528060008152602001606081526020016060815260200160008152602001600081526020016000815260200160008152602001600073ffffffffffffffffffffffffffffffffffffffff1681525090565b6000604051905090565b600080fd5b600080fd5b600073ffffffffffffffffffffffffffffffffffffffff82169050919050565b60006117398261170e565b9050919050565b6117498161172e565b811461175457600080fd5b50565b60008135905061176681611740565b92915050565b6000819050919050565b61177f8161176c565b811461178a57600080fd5b50565b60008135905061179c81611776565b92915050565b600080604083850312156117b9576117b8611704565b5b60006117c785828601611757565b92505060206117d88582860161178d565b9150509250929050565b6117eb8161176c565b82525050565b600060208201905061180660008301846117e2565b92915050565b600080fd5b600080fd5b6000601f19601f8301169050919050565b7f4e487b7100000000000000000000000000000000000000000000000000000000600052604160045260246000fd5b61185f82611816565b810181811067ffffffffffffffff8211171561187e5761187d611827565b5b80604052505050565b60006118916116fa565b905061189d8282611856565b919050565b600067ffffffffffffffff8211156118bd576118bc611827565b5b6118c682611816565b9050602081019050919050565b82818337600083830152505050565b60006118f56118f0846118a2565b611887565b90508281526020810184848401111561191157611910611811565b5b61191c8482856118d3565b509392505050565b600082601f8301126119395761193861180c565b5b81356119498482602086016118e2565b91505092915050565b60008060006060848603121561196b5761196a611704565b5b60006119798682870161178d565b935050602084013567ffffffffffffffff81111561199a57611999611709565b5b6119a686828701611924565b92505060406119b78682870161178d565b9150509250925092565b6000602082840312156119d7576119d6611704565b5b60006119e58482850161178d565b91505092915050565b600081519050919050565b600082825260208201905092915050565b60005b83811015611a28578082015181840152602081019050611a0d565b60008484015250505050565b6000611a3f826119ee565b611a4981856119f9565b9350611a59818560208601611a0a565b611a6281611816565b840191505092915050565b611a768161172e565b82525050565b600061010082019050611a92600083018b6117e2565b8181036020830152611aa4818a611a34565b90508181036040830152611ab88189611a34565b9050611ac760608301886117e2565b611ad460808301876117e2565b611ae160a08301866117e2565b611aee60c08301856117e2565b611afb60e0830184611a6d565b9998505050505050505050565b600080600080600060a08688031215611b2457611b23611704565b5b600086013567ffffffffffffffff811115611b4257611b41611709565b5b611b4e88828901611924565b955050602086013567ffffffffffffffff811115611b6f57611b6e611709565b5b611b7b88828901611924565b9450506040611b8c8882890161178d565b9350506060611b9d8882890161178d565b9250506080611bae8882890161178d565b9150509295509295909350565b60008060408385031215611bd257611bd1611704565b5b6000611be08582860161178d565b925050602083013567ffffffffffffffff811115611c0157611c00611709565b5b611c0d85828601611924565b9150509250929050565b611c208161176c565b82525050565b600082825260208201905092915050565b6000611c42826119ee565b611c4c8185611c26565b9350611c5c818560208601611a0a565b611c6581611816565b840191505092915050565b611c798161172e565b82525050565b600061010083016000830151611c986000860182611c17565b5060208301518482036020860152611cb08282611c37565b91505060408301518482036040860152611cca8282611c37565b9150506060830151611cdf6060860182611c17565b506080830151611cf26080860182611c17565b5060a0830151611d0560a0860182611c17565b5060c0830151611d1860c0860182611c17565b5060e0830151611d2b60e0860182611c70565b508091505092915050565b60006020820190508181036000830152611d508184611c7f565b905092915050565b60008060008060808587031215611d7257611d71611704565b5b6000611d8087828801611757565b9450506020611d918782880161178d565b9350506040611da28782880161178d565b925050606085013567ffffffffffffffff811115611dc357611dc2611709565b5b611dcf87828801611924565b91505092959194509250565b600060208284031215611df157611df0611704565b5b600082013567ffffffffffffffff811115611e0f57611e0e611709565b5b611e1b84828501611924565b91505092915050565b6000602082019050611e396000830184611a6d565b92915050565b7f6e6f742065786973740000000000000000000000000000000000000000000000600082015250565b6000611e756009836119f9565b9150611e8082611e3f565b602082019050919050565b60006020820190508181036000830152611ea481611e68565b9050919050565b7f6176616c6920746b747320697373756500000000000000000000000000000000600082015250565b6000611ee16010836119f9565b9150611eec82611eab565b602082019050919050565b60006020820190508181036000830152611f1081611ed4565b9050919050565b7f4e487b7100000000000000000000000000000000000000000000000000000000600052601160045260246000fd5b6000611f518261176c565b9150611f5c8361176c565b9250828202611f6a8161176c565b91508282048414831517611f8157611f80611f17565b5b5092915050565b7f706179616d656e74206973737565000000000000000000000000000000000000600082015250565b6000611fbe600e836119f9565b9150611fc982611f88565b602082019050919050565b60006020820190508181036000830152611fed81611fb1565b9050919050565b6000611fff8261176c565b915061200a8361176c565b925082820390508181111561202257612021611f17565b5b92915050565b60006120338261176c565b915061203e8361176c565b925082820190508082111561205657612055611f17565b5b92915050565b7f4e487b7100000000000000000000000000000000000000000000000000000000600052602260045260246000fd5b600060028204905060018216806120a357607f821691505b6020821081036120b6576120b561205c565b5b50919050565b7f6e6f7420656e6f75676820726567697374726174696f6e206665650000000000600082015250565b60006120f2601b836119f9565b91506120fd826120bc565b602082019050919050565b60006020820190508181036000830152612121816120e5565b9050919050565b60008190508160005260206000209050919050565b60006020601f8301049050919050565b600082821b905092915050565b60006008830261218a7fffffffffffffffffffffffffffffffffffffffffffffffffffffffffffffffff8261214d565b612194868361214d565b95508019841693508086168417925050509392505050565b6000819050919050565b60006121d16121cc6121c78461176c565b6121ac565b61176c565b9050919050565b6000819050919050565b6121eb836121b6565b6121ff6121f7826121d8565b84845461215a565b825550505050565b600090565b612214612207565b61221f8184846121e2565b505050565b5b818110156122435761223860008261220c565b600181019050612225565b5050565b601f8211156122885761225981612128565b6122628461213d565b81016020851015612271578190505b61228561227d8561213d565b830182612224565b50505b505050565b600082821c905092915050565b60006122ab6000198460080261228d565b1980831691505092915050565b60006122c4838361229a565b9150826002028217905092915050565b6122dd826119ee565b67ffffffffffffffff8111156122f6576122f5611827565b5b612300825461208b565b61230b828285612247565b600060209050601f83116001811461233e576000841561232c578287015190505b61233685826122b8565b86555061239e565b601f19841661234c86612128565b60005b828110156123745784890151825560018201915060208501945060208101905061234f565b86831015612391578489015161238d601f89168261229a565b8355505b6001600288020188555050505b505050505050565b600081905092915050565b60006123bc826119ee565b6123c681856123a6565b93506123d6818560208601611a0a565b80840191505092915050565b60006123ee82846123b1565b915081905092915050565b60006124048261176c565b91507fffffffffffffffffffffffffffffffffffffffffffffffffffffffffffffffff820361243657612435611f17565b5b600182019050919050565b7f696e73756666696365696e742042616c616e6365000000000000000000000000600082015250565b60006124776014836119f9565b915061248282612441565b602082019050919050565b600060208201905081810360008301526124a68161246a565b905091905056fea2646970667358221220535b6a9859aafa60108290e9b92e93426bca7c0221f45adfaff54d202e3d7e3d64736f6c63430008130033",
  "linkReferences": {},
  "deployedLinkReferences": {}
}