{
  "_format": "hh-sol-artifact-1",
  "contractName": "Ticket",
  "sourceName": "contracts/Ticket.sol",
  "abi": [
    {
      "inputs": [],
      "stateMutability": "nonpayable",
      "type": "constructor"
    },
    {
      "inputs": [],
      "name": "ContractBalance",
      "outputs": [
        {
          "internalType": "uint256",
          "name": "",
          "type": "uint256"
        }
      ],
      "stateMutability": "view",
      "type": "function"
    },
    {
      "inputs": [
        {
          "internalType": "address",
          "name": "to",
          "type": "address"
        },
        {
          "internalType": "uint256",
          "name": "quantity",
          "type": "uint256"
        },
        {
          "internalType": "uint256",
          "name": "_eventId",
          "type": "uint256"
        },
        {
          "internalType": "string",
          "name": "_eventName",
          "type": "string"
        }
      ],
      "name": "TransferTickets",
      "outputs": [
        {
          "internalType": "bool",
          "name": "",
          "type": "bool"
        }
      ],
      "stateMutability": "nonpayable",
      "type": "function"
    },
    {
      "inputs": [
        {
          "internalType": "uint256",
          "name": "",
          "type": "uint256"
        }
      ],
      "name": "allEvents",
      "outputs": [
        {
          "internalType": "uint256",
          "name": "id",
          "type": "uint256"
        },
        {
          "internalType": "string",
          "name": "name",
          "type": "string"
        },
        {
          "internalType": "string",
          "name": "venue",
          "type": "string"
        },
        {
          "internalType": "uint256",
          "name": "time",
          "type": "uint256"
        },
        {
          "internalType": "uint256",
          "name": "totalTkts",
          "type": "uint256"
        },
        {
          "internalType": "uint256",
          "name": "availTkts",
          "type": "uint256"
        },
        {
          "internalType": "uint256",
          "name": "tktPrice",
          "type": "uint256"
        },
        {
          "internalType": "address",
          "name": "owner",
          "type": "address"
        },
        {
          "internalType": "bool",
          "name": "isWithdraw",
          "type": "bool"
        }
      ],
      "stateMutability": "view",
      "type": "function"
    },
    {
      "inputs": [
        {
          "internalType": "address",
          "name": "user",
          "type": "address"
        },
        {
          "internalType": "uint256",
          "name": "eventId",
          "type": "uint256"
        }
      ],
      "name": "checkTickets",
      "outputs": [
        {
          "internalType": "uint256",
          "name": "",
          "type": "uint256"
        }
      ],
      "stateMutability": "view",
      "type": "function"
    },
    {
      "inputs": [
        {
          "internalType": "string",
          "name": "_name",
          "type": "string"
        },
        {
          "internalType": "string",
          "name": "_venue",
          "type": "string"
        },
        {
          "internalType": "uint256",
          "name": "_time",
          "type": "uint256"
        },
        {
          "internalType": "uint256",
          "name": "_totalTkts",
          "type": "uint256"
        },
        {
          "internalType": "uint256",
          "name": "_tktPrice",
          "type": "uint256"
        }
      ],
      "name": "createEvent",
      "outputs": [
        {
          "internalType": "bool",
          "name": "",
          "type": "bool"
        }
      ],
      "stateMutability": "payable",
      "type": "function"
    },
    {
      "inputs": [],
      "name": "developer",
      "outputs": [
        {
          "internalType": "address",
          "name": "",
          "type": "address"
        }
      ],
      "stateMutability": "view",
      "type": "function"
    },
    {
      "inputs": [
        {
          "internalType": "uint256",
          "name": "eventId",
          "type": "uint256"
        },
        {
          "internalType": "string",
          "name": "eventName",
          "type": "string"
        }
      ],
      "name": "getSoldtktAmount",
      "outputs": [
        {
          "internalType": "bool",
          "name": "",
          "type": "bool"
        }
      ],
      "stateMutability": "nonpayable",
      "type": "function"
    },
    {
      "inputs": [
        {
          "internalType": "uint256",
          "name": "_eventIndex",
          "type": "uint256"
        },
        {
          "internalType": "string",
          "name": "_eventName",
          "type": "string"
        },
        {
          "internalType": "uint256",
          "name": "_tkts",
          "type": "uint256"
        }
      ],
      "name": "purchaseTkt",
      "outputs": [],
      "stateMutability": "payable",
      "type": "function"
    },
    {
      "inputs": [
        {
          "internalType": "uint256",
          "name": "_eventId",
          "type": "uint256"
        },
        {
          "internalType": "address",
          "name": "_addressToRemove",
          "type": "address"
        }
      ],
      "name": "removeHolder",
      "outputs": [],
      "stateMutability": "nonpayable",
      "type": "function"
    },
    {
      "inputs": [
        {
          "internalType": "uint256",
          "name": "_id",
          "type": "uint256"
        }
      ],
      "name": "searchEventById",
      "outputs": [
        {
          "components": [
            {
              "internalType": "uint256",
              "name": "id",
              "type": "uint256"
            },
            {
              "internalType": "string",
              "name": "name",
              "type": "string"
            },
            {
              "internalType": "string",
              "name": "venue",
              "type": "string"
            },
            {
              "internalType": "uint256",
              "name": "time",
              "type": "uint256"
            },
            {
              "internalType": "uint256",
              "name": "totalTkts",
              "type": "uint256"
            },
            {
              "internalType": "uint256",
              "name": "availTkts",
              "type": "uint256"
            },
            {
              "internalType": "uint256",
              "name": "tktPrice",
              "type": "uint256"
            },
            {
              "internalType": "address",
              "name": "owner",
              "type": "address"
            },
            {
              "internalType": "bool",
              "name": "isWithdraw",
              "type": "bool"
            },
            {
              "internalType": "address[]",
              "name": "holders",
              "type": "address[]"
            }
          ],
          "internalType": "struct Ticket.Event",
          "name": "",
          "type": "tuple"
        }
      ],
      "stateMutability": "view",
      "type": "function"
    },
    {
      "inputs": [
        {
          "internalType": "string",
          "name": "_name",
          "type": "string"
        }
      ],
      "name": "searchEventByName",
      "outputs": [
        {
          "components": [
            {
              "internalType": "uint256",
              "name": "id",
              "type": "uint256"
            },
            {
              "internalType": "string",
              "name": "name",
              "type": "string"
            },
            {
              "internalType": "string",
              "name": "venue",
              "type": "string"
            },
            {
              "internalType": "uint256",
              "name": "time",
              "type": "uint256"
            },
            {
              "internalType": "uint256",
              "name": "totalTkts",
              "type": "uint256"
            },
            {
              "internalType": "uint256",
              "name": "availTkts",
              "type": "uint256"
            },
            {
              "internalType": "uint256",
              "name": "tktPrice",
              "type": "uint256"
            },
            {
              "internalType": "address",
              "name": "owner",
              "type": "address"
            },
            {
              "internalType": "bool",
              "name": "isWithdraw",
              "type": "bool"
            },
            {
              "internalType": "address[]",
              "name": "holders",
              "type": "address[]"
            }
          ],
          "internalType": "struct Ticket.Event",
          "name": "",
          "type": "tuple"
        }
      ],
      "stateMutability": "view",
      "type": "function"
    },
    {
      "inputs": [
        {
          "internalType": "address",
          "name": "",
          "type": "address"
        },
        {
          "internalType": "uint256",
          "name": "",
          "type": "uint256"
        }
      ],
      "name": "tktHolders",
      "outputs": [
        {
          "internalType": "uint256",
          "name": "",
          "type": "uint256"
        }
      ],
      "stateMutability": "view",
      "type": "function"
    },
    {
      "inputs": [],
      "name": "totalEvents",
      "outputs": [
        {
          "internalType": "uint256",
          "name": "",
          "type": "uint256"
        }
      ],
      "stateMutability": "view",
      "type": "function"
    },
    {
      "inputs": [
        {
          "internalType": "uint256",
          "name": "_bal",
          "type": "uint256"
        }
      ],
      "name": "withdrawBalance",
      "outputs": [],
      "stateMutability": "nonpayable",
      "type": "function"
    }
  ],
  "bytecode": "0x60a060405234801561001057600080fd5b503373ffffffffffffffffffffffffffffffffffffffff1660808173ffffffffffffffffffffffffffffffffffffffff1681525050608051612e5c6100676000396000818161190001526119690152612e5c6000f3fe6080604052600436106100dd5760003560e01c80635282fc001161007f578063b5eb8f5611610059578063b5eb8f56146102f8578063ba87068614610335578063ca4b208b14610360578063da76d5cd1461038b576100dd565b80635282fc0014610241578063860cfe911461027e578063887ff9a8146102bb576100dd565b80632f88d5c7116100bb5780632f88d5c7146101645780633b668059146101a15780633bec5cff146101cc5780633c2fc56c14610211576100dd565b806316f81612146100e2578063241c5cd01461010b57806325c6bfe314610148575b600080fd5b3480156100ee57600080fd5b5061010960048036038101906101049190611edd565b6103b4565b005b34801561011757600080fd5b50610132600480360381019061012d9190611f1d565b610560565b60405161013f9190611f6c565b60405180910390f35b610162600480360381019061015d91906120cd565b610585565b005b34801561017057600080fd5b5061018b60048036038101906101869190611f1d565b610784565b6040516101989190611f6c565b60405180910390f35b3480156101ad57600080fd5b506101b66107f2565b6040516101c39190611f6c565b60405180910390f35b3480156101d857600080fd5b506101f360048036038101906101ee919061213c565b6107fc565b60405161020899989796959493929190612212565b60405180910390f35b61022b600480360381019061022691906122ad565b610987565b6040516102389190612360565b60405180910390f35b34801561024d57600080fd5b506102686004803603810190610263919061237b565b610b83565b6040516102759190612360565b60405180910390f35b34801561028a57600080fd5b506102a560048036038101906102a0919061213c565b610eb2565b6040516102b291906125e5565b60405180910390f35b3480156102c757600080fd5b506102e260048036038101906102dd9190612607565b6111cb565b6040516102ef9190612360565b60405180910390f35b34801561030457600080fd5b5061031f600480360381019061031a919061268a565b611568565b60405161032c91906125e5565b60405180910390f35b34801561034157600080fd5b5061034a6118f8565b6040516103579190611f6c565b60405180910390f35b34801561036c57600080fd5b506103756118fe565b60405161038291906126d3565b60405180910390f35b34801561039757600080fd5b506103b260048036038101906103ad919061213c565b611922565b005b6000600160008481526020019081526020016000209050600081600801905060005b8180549050811015610559578373ffffffffffffffffffffffffffffffffffffffff1682828154811061040c5761040b6126ee565b5b9060005260206000200160009054906101000a900473ffffffffffffffffffffffffffffffffffffffff1673ffffffffffffffffffffffffffffffffffffffff1603610546578160018380549050610464919061274c565b81548110610475576104746126ee565b5b9060005260206000200160009054906101000a900473ffffffffffffffffffffffffffffffffffffffff168282815481106104b3576104b26126ee565b5b9060005260206000200160006101000a81548173ffffffffffffffffffffffffffffffffffffffff021916908373ffffffffffffffffffffffffffffffffffffffff1602179055508180548061050c5761050b612780565b5b6001900381819060005260206000200160006101000a81549073ffffffffffffffffffffffffffffffffffffffff02191690559055610559565b8080610551906127af565b9150506103d6565b5050505050565b6002602052816000526040600020602052806000526040600020600091509150505481565b6001151561059384846119d1565b1515146105d5576040517f08c379a00000000000000000000000000000000000000000000000000000000081526004016105cc90612843565b60405180910390fd5b60006001600085815260200190815260200160002090508181600501541015610633576040517f08c379a000000000000000000000000000000000000000000000000000000000815260040161062a906128af565b60405180910390fd5b3482826006015461064491906128cf565b1115610685576040517f08c379a000000000000000000000000000000000000000000000000000000000815260040161067c9061295d565b60405180910390fd5b60006106913386610784565b036106fc5780600801339080600181540180825580915050600190039060005260206000200160009091909190916101000a81548173ffffffffffffffffffffffffffffffffffffffff021916908373ffffffffffffffffffffffffffffffffffffffff1602179055505b81816005016000828254610710919061274c565b9250508190555081600260003373ffffffffffffffffffffffffffffffffffffffff1673ffffffffffffffffffffffffffffffffffffffff16815260200190815260200160002060008681526020019081526020016000206000828254610777919061297d565b9250508190555050505050565b60008054821061079357600080fd5b6000600260008573ffffffffffffffffffffffffffffffffffffffff1673ffffffffffffffffffffffffffffffffffffffff16815260200190815260200160002060008481526020019081526020016000205490508091505092915050565b6000600354905090565b6001602052806000526040600020600091509050806000015490806001018054610825906129e0565b80601f0160208091040260200160405190810160405280929190818152602001828054610851906129e0565b801561089e5780601f106108735761010080835404028352916020019161089e565b820191906000526020600020905b81548152906001019060200180831161088157829003601f168201915b5050505050908060020180546108b3906129e0565b80601f01602080910402602001604051908101604052809291908181526020018280546108df906129e0565b801561092c5780601f106109015761010080835404028352916020019161092c565b820191906000526020600020905b81548152906001019060200180831161090f57829003601f168201915b5050505050908060030154908060040154908060050154908060060154908060070160009054906101000a900473ffffffffffffffffffffffffffffffffffffffff16908060070160149054906101000a900460ff16905089565b600066038d7ea4c680003410156109d3576040517f08c379a00000000000000000000000000000000000000000000000000000000081526004016109ca90612a5d565b60405180910390fd5b8342106109df57600080fd5b6060600060405180610140016040528060005481526020018981526020018881526020018781526020018681526020018681526020018581526020013373ffffffffffffffffffffffffffffffffffffffff168152602001600015158152602001838152509050806001600080548152602001908152602001600020600082015181600001556020820151816001019081610a7a9190612c29565b506040820151816002019081610a909190612c29565b50606082015181600301556080820151816004015560a0820151816005015560c0820151816006015560e08201518160070160006101000a81548173ffffffffffffffffffffffffffffffffffffffff021916908373ffffffffffffffffffffffffffffffffffffffff1602179055506101008201518160070160146101000a81548160ff021916908315150217905550610120820151816008019080519060200190610b3e929190611cc2565b509050506001600080828254610b54919061297d565b925050819055503460036000828254610b6d919061297d565b9250508190555060019250505095945050505050565b600060011515610b9384846119d1565b151514610b9f57600080fd5b600060016000858152602001908152602001600020905080600301544211610bc657600080fd5b3373ffffffffffffffffffffffffffffffffffffffff168160070160009054906101000a900473ffffffffffffffffffffffffffffffffffffffff1673ffffffffffffffffffffffffffffffffffffffff1614610c2257600080fd5b600015158160070160149054906101000a900460ff16151514610c7a576040517f08c379a0000000000000000000000000000000000000000000000000000000008152600401610c7190612d47565b60405180910390fd5b60018160070160146101000a81548160ff0219169083151502179055506000816006015482600501548360040154610cb2919061274c565b610cbc91906128cf565b905060008260070160009054906101000a900473ffffffffffffffffffffffffffffffffffffffff16905060008360000154905060005b8460080180549050811015610db3576000856008018281548110610d1a57610d196126ee565b5b9060005260206000200160009054906101000a900473ffffffffffffffffffffffffffffffffffffffff169050600260008273ffffffffffffffffffffffffffffffffffffffff1673ffffffffffffffffffffffffffffffffffffffff16815260200190815260200160002060008760000154815260200190815260200160002060009055508080610dab906127af565b915050610cf3565b5060016000828152602001908152602001600020600080820160009055600182016000610de09190611d4c565b600282016000610df09190611d4c565b60038201600090556004820160009055600582016000905560068201600090556007820160006101000a81549073ffffffffffffffffffffffffffffffffffffffff02191690556007820160146101000a81549060ff0219169055600882016000610e5b9190611d8c565b50508173ffffffffffffffffffffffffffffffffffffffff166108fc849081150290604051600060405180830381858888f19350505050158015610ea3573d6000803e3d6000fd5b50600194505050505092915050565b610eba611dad565b6000548210610f4f57606060405180610140016040528060008152602001604051806020016040528060008152508152602001604051806020016040528060008152508152602001600081526020016000815260200160008152602001600081526020013373ffffffffffffffffffffffffffffffffffffffff168152602001600015158152602001828152509150506111c6565b600160008381526020019081526020016000206040518061014001604052908160008201548152602001600182018054610f88906129e0565b80601f0160208091040260200160405190810160405280929190818152602001828054610fb4906129e0565b80156110015780601f10610fd657610100808354040283529160200191611001565b820191906000526020600020905b815481529060010190602001808311610fe457829003601f168201915b5050505050815260200160028201805461101a906129e0565b80601f0160208091040260200160405190810160405280929190818152602001828054611046906129e0565b80156110935780601f1061106857610100808354040283529160200191611093565b820191906000526020600020905b81548152906001019060200180831161107657829003601f168201915b50505050508152602001600382015481526020016004820154815260200160058201548152602001600682015481526020016007820160009054906101000a900473ffffffffffffffffffffffffffffffffffffffff1673ffffffffffffffffffffffffffffffffffffffff1673ffffffffffffffffffffffffffffffffffffffff1681526020016007820160149054906101000a900460ff16151515158152602001600882018054806020026020016040519081016040528092919081815260200182805480156111ba57602002820191906000526020600020905b8160009054906101000a900473ffffffffffffffffffffffffffffffffffffffff1673ffffffffffffffffffffffffffffffffffffffff1681526020019060010190808311611170575b50505050508152505090505b919050565b6000600115156111db84846119d1565b1515146111e757600080fd5b83600260003373ffffffffffffffffffffffffffffffffffffffff1673ffffffffffffffffffffffffffffffffffffffff168152602001908152602001600020600085815260200190815260200160002054101561124457600080fd5b60006001600085815260200190815260200160002090504281600301541161126b57600080fd5b84600260003373ffffffffffffffffffffffffffffffffffffffff1673ffffffffffffffffffffffffffffffffffffffff168152602001908152602001600020600086815260200190815260200160002060008282546112cb919061274c565b9250508190555060006112de3386610784565b0361147d5760005b816008018054905081101561147b573373ffffffffffffffffffffffffffffffffffffffff16826008018281548110611322576113216126ee565b5b9060005260206000200160009054906101000a900473ffffffffffffffffffffffffffffffffffffffff1673ffffffffffffffffffffffffffffffffffffffff1603611468578160080160018360080180549050611380919061274c565b81548110611391576113906126ee565b5b9060005260206000200160009054906101000a900473ffffffffffffffffffffffffffffffffffffffff168260080182815481106113d2576113d16126ee565b5b9060005260206000200160006101000a81548173ffffffffffffffffffffffffffffffffffffffff021916908373ffffffffffffffffffffffffffffffffffffffff1602179055508160080180548061142e5761142d612780565b5b6001900381819060005260206000200160006101000a81549073ffffffffffffffffffffffffffffffffffffffff0219169055905561147b565b8080611473906127af565b9150506112e6565b505b60006114898786610784565b036114f45780600801869080600181540180825580915050600190039060005260206000200160009091909190916101000a81548173ffffffffffffffffffffffffffffffffffffffff021916908373ffffffffffffffffffffffffffffffffffffffff1602179055505b84600260008873ffffffffffffffffffffffffffffffffffffffff1673ffffffffffffffffffffffffffffffffffffffff16815260200190815260200160002060008681526020019081526020016000206000828254611554919061297d565b925050819055506001915050949350505050565b611570611dad565b60005b60005481101561186a5760006001600083815260200190815260200160002060405180610140016040529081600082015481526020016001820180546115b8906129e0565b80601f01602080910402602001604051908101604052809291908181526020018280546115e4906129e0565b80156116315780601f1061160657610100808354040283529160200191611631565b820191906000526020600020905b81548152906001019060200180831161161457829003601f168201915b5050505050815260200160028201805461164a906129e0565b80601f0160208091040260200160405190810160405280929190818152602001828054611676906129e0565b80156116c35780601f10611698576101008083540402835291602001916116c3565b820191906000526020600020905b8154815290600101906020018083116116a657829003601f168201915b50505050508152602001600382015481526020016004820154815260200160058201548152602001600682015481526020016007820160009054906101000a900473ffffffffffffffffffffffffffffffffffffffff1673ffffffffffffffffffffffffffffffffffffffff1673ffffffffffffffffffffffffffffffffffffffff1681526020016007820160149054906101000a900460ff16151515158152602001600882018054806020026020016040519081016040528092919081815260200182805480156117ea57602002820191906000526020600020905b8160009054906101000a900473ffffffffffffffffffffffffffffffffffffffff1673ffffffffffffffffffffffffffffffffffffffff16815260200190600101908083116117a0575b5050505050815250509050806020015160405160200161180a9190612da3565b60405160208183030381529060405280519060200120846040516020016118319190612da3565b60405160208183030381529060405280519060200120036118565780925050506118f3565b508080611862906127af565b915050611573565b50606060405180610140016040528060008152602001604051806020016040528060008152508152602001604051806020016040528060008152508152602001600081526020016000815260200160008152602001600081526020013373ffffffffffffffffffffffffffffffffffffffff168152602001600015158152602001828152509150505b919050565b60005481565b7f000000000000000000000000000000000000000000000000000000000000000081565b600354811115611967576040517f08c379a000000000000000000000000000000000000000000000000000000000815260040161195e90612e06565b60405180910390fd5b7f000000000000000000000000000000000000000000000000000000000000000073ffffffffffffffffffffffffffffffffffffffff166108fc829081150290604051600060405180830381858888f193505050501580156119cd573d6000803e3d6000fd5b5050565b60008054831015611cb7576000600160008581526020019081526020016000206040518061014001604052908160008201548152602001600182018054611a17906129e0565b80601f0160208091040260200160405190810160405280929190818152602001828054611a43906129e0565b8015611a905780601f10611a6557610100808354040283529160200191611a90565b820191906000526020600020905b815481529060010190602001808311611a7357829003601f168201915b50505050508152602001600282018054611aa9906129e0565b80601f0160208091040260200160405190810160405280929190818152602001828054611ad5906129e0565b8015611b225780601f10611af757610100808354040283529160200191611b22565b820191906000526020600020905b815481529060010190602001808311611b0557829003601f168201915b50505050508152602001600382015481526020016004820154815260200160058201548152602001600682015481526020016007820160009054906101000a900473ffffffffffffffffffffffffffffffffffffffff1673ffffffffffffffffffffffffffffffffffffffff1673ffffffffffffffffffffffffffffffffffffffff1681526020016007820160149054906101000a900460ff1615151515815260200160088201805480602002602001604051908101604052809291908181526020018280548015611c4957602002820191906000526020600020905b8160009054906101000a900473ffffffffffffffffffffffffffffffffffffffff1673ffffffffffffffffffffffffffffffffffffffff1681526020019060010190808311611bff575b50505050508152505090508060200151604051602001611c699190612da3565b6040516020818303038152906040528051906020012083604051602001611c909190612da3565b6040516020818303038152906040528051906020012003611cb5576001915050611cbc565b505b600090505b92915050565b828054828255906000526020600020908101928215611d3b579160200282015b82811115611d3a5782518260006101000a81548173ffffffffffffffffffffffffffffffffffffffff021916908373ffffffffffffffffffffffffffffffffffffffff16021790555091602001919060010190611ce2565b5b509050611d489190611e18565b5090565b508054611d58906129e0565b6000825580601f10611d6a5750611d89565b601f016020900490600052602060002090810190611d889190611e18565b5b50565b5080546000825590600052602060002090810190611daa9190611e18565b50565b60405180610140016040528060008152602001606081526020016060815260200160008152602001600081526020016000815260200160008152602001600073ffffffffffffffffffffffffffffffffffffffff168152602001600015158152602001606081525090565b5b80821115611e31576000816000905550600101611e19565b5090565b6000604051905090565b600080fd5b600080fd5b6000819050919050565b611e5c81611e49565b8114611e6757600080fd5b50565b600081359050611e7981611e53565b92915050565b600073ffffffffffffffffffffffffffffffffffffffff82169050919050565b6000611eaa82611e7f565b9050919050565b611eba81611e9f565b8114611ec557600080fd5b50565b600081359050611ed781611eb1565b92915050565b60008060408385031215611ef457611ef3611e3f565b5b6000611f0285828601611e6a565b9250506020611f1385828601611ec8565b9150509250929050565b60008060408385031215611f3457611f33611e3f565b5b6000611f4285828601611ec8565b9250506020611f5385828601611e6a565b9150509250929050565b611f6681611e49565b82525050565b6000602082019050611f816000830184611f5d565b92915050565b600080fd5b600080fd5b6000601f19601f8301169050919050565b7f4e487b7100000000000000000000000000000000000000000000000000000000600052604160045260246000fd5b611fda82611f91565b810181811067ffffffffffffffff82111715611ff957611ff8611fa2565b5b80604052505050565b600061200c611e35565b90506120188282611fd1565b919050565b600067ffffffffffffffff82111561203857612037611fa2565b5b61204182611f91565b9050602081019050919050565b82818337600083830152505050565b600061207061206b8461201d565b612002565b90508281526020810184848401111561208c5761208b611f8c565b5b61209784828561204e565b509392505050565b600082601f8301126120b4576120b3611f87565b5b81356120c484826020860161205d565b91505092915050565b6000806000606084860312156120e6576120e5611e3f565b5b60006120f486828701611e6a565b935050602084013567ffffffffffffffff81111561211557612114611e44565b5b6121218682870161209f565b925050604061213286828701611e6a565b9150509250925092565b60006020828403121561215257612151611e3f565b5b600061216084828501611e6a565b91505092915050565b600081519050919050565b600082825260208201905092915050565b60005b838110156121a3578082015181840152602081019050612188565b60008484015250505050565b60006121ba82612169565b6121c48185612174565b93506121d4818560208601612185565b6121dd81611f91565b840191505092915050565b6121f181611e9f565b82525050565b60008115159050919050565b61220c816121f7565b82525050565b600061012082019050612228600083018c611f5d565b818103602083015261223a818b6121af565b9050818103604083015261224e818a6121af565b905061225d6060830189611f5d565b61226a6080830188611f5d565b61227760a0830187611f5d565b61228460c0830186611f5d565b61229160e08301856121e8565b61229f610100830184612203565b9a9950505050505050505050565b600080600080600060a086880312156122c9576122c8611e3f565b5b600086013567ffffffffffffffff8111156122e7576122e6611e44565b5b6122f38882890161209f565b955050602086013567ffffffffffffffff81111561231457612313611e44565b5b6123208882890161209f565b945050604061233188828901611e6a565b935050606061234288828901611e6a565b925050608061235388828901611e6a565b9150509295509295909350565b60006020820190506123756000830184612203565b92915050565b6000806040838503121561239257612391611e3f565b5b60006123a085828601611e6a565b925050602083013567ffffffffffffffff8111156123c1576123c0611e44565b5b6123cd8582860161209f565b9150509250929050565b6123e081611e49565b82525050565b600082825260208201905092915050565b600061240282612169565b61240c81856123e6565b935061241c818560208601612185565b61242581611f91565b840191505092915050565b61243981611e9f565b82525050565b612448816121f7565b82525050565b600081519050919050565b600082825260208201905092915050565b6000819050602082019050919050565b60006124868383612430565b60208301905092915050565b6000602082019050919050565b60006124aa8261244e565b6124b48185612459565b93506124bf8361246a565b8060005b838110156124f05781516124d7888261247a565b97506124e283612492565b9250506001810190506124c3565b5085935050505092915050565b60006101408301600083015161251660008601826123d7565b506020830151848203602086015261252e82826123f7565b9150506040830151848203604086015261254882826123f7565b915050606083015161255d60608601826123d7565b50608083015161257060808601826123d7565b5060a083015161258360a08601826123d7565b5060c083015161259660c08601826123d7565b5060e08301516125a960e0860182612430565b506101008301516125be61010086018261243f565b506101208301518482036101208601526125d8828261249f565b9150508091505092915050565b600060208201905081810360008301526125ff81846124fd565b905092915050565b6000806000806080858703121561262157612620611e3f565b5b600061262f87828801611ec8565b945050602061264087828801611e6a565b935050604061265187828801611e6a565b925050606085013567ffffffffffffffff81111561267257612671611e44565b5b61267e8782880161209f565b91505092959194509250565b6000602082840312156126a05761269f611e3f565b5b600082013567ffffffffffffffff8111156126be576126bd611e44565b5b6126ca8482850161209f565b91505092915050565b60006020820190506126e860008301846121e8565b92915050565b7f4e487b7100000000000000000000000000000000000000000000000000000000600052603260045260246000fd5b7f4e487b7100000000000000000000000000000000000000000000000000000000600052601160045260246000fd5b600061275782611e49565b915061276283611e49565b925082820390508181111561277a5761277961271d565b5b92915050565b7f4e487b7100000000000000000000000000000000000000000000000000000000600052603160045260246000fd5b60006127ba82611e49565b91507fffffffffffffffffffffffffffffffffffffffffffffffffffffffffffffffff82036127ec576127eb61271d565b5b600182019050919050565b7f6e6f742065786973740000000000000000000000000000000000000000000000600082015250565b600061282d600983612174565b9150612838826127f7565b602082019050919050565b6000602082019050818103600083015261285c81612820565b9050919050565b7f6176616c6920746b747320697373756500000000000000000000000000000000600082015250565b6000612899601083612174565b91506128a482612863565b602082019050919050565b600060208201905081810360008301526128c88161288c565b9050919050565b60006128da82611e49565b91506128e583611e49565b92508282026128f381611e49565b9150828204841483151761290a5761290961271d565b5b5092915050565b7f706179616d656e74206973737565000000000000000000000000000000000000600082015250565b6000612947600e83612174565b915061295282612911565b602082019050919050565b600060208201905081810360008301526129768161293a565b9050919050565b600061298882611e49565b915061299383611e49565b92508282019050808211156129ab576129aa61271d565b5b92915050565b7f4e487b7100000000000000000000000000000000000000000000000000000000600052602260045260246000fd5b600060028204905060018216806129f857607f821691505b602082108103612a0b57612a0a6129b1565b5b50919050565b7f6e6f7420656e6f75676820726567697374726174696f6e206665650000000000600082015250565b6000612a47601b83612174565b9150612a5282612a11565b602082019050919050565b60006020820190508181036000830152612a7681612a3a565b9050919050565b60008190508160005260206000209050919050565b60006020601f8301049050919050565b600082821b905092915050565b600060088302612adf7fffffffffffffffffffffffffffffffffffffffffffffffffffffffffffffffff82612aa2565b612ae98683612aa2565b95508019841693508086168417925050509392505050565b6000819050919050565b6000612b26612b21612b1c84611e49565b612b01565b611e49565b9050919050565b6000819050919050565b612b4083612b0b565b612b54612b4c82612b2d565b848454612aaf565b825550505050565b600090565b612b69612b5c565b612b74818484612b37565b505050565b5b81811015612b9857612b8d600082612b61565b600181019050612b7a565b5050565b601f821115612bdd57612bae81612a7d565b612bb784612a92565b81016020851015612bc6578190505b612bda612bd285612a92565b830182612b79565b50505b505050565b600082821c905092915050565b6000612c0060001984600802612be2565b1980831691505092915050565b6000612c198383612bef565b9150826002028217905092915050565b612c3282612169565b67ffffffffffffffff811115612c4b57612c4a611fa2565b5b612c5582546129e0565b612c60828285612b9c565b600060209050601f831160018114612c935760008415612c81578287015190505b612c8b8582612c0d565b865550612cf3565b601f198416612ca186612a7d565b60005b82811015612cc957848901518255600182019150602085019450602081019050612ca4565b86831015612ce65784890151612ce2601f891682612bef565b8355505b6001600288020188555050505b505050505050565b7f796f7520616c72656164792077697468647261772074686520616d6f756e7400600082015250565b6000612d31601f83612174565b9150612d3c82612cfb565b602082019050919050565b60006020820190508181036000830152612d6081612d24565b9050919050565b600081905092915050565b6000612d7d82612169565b612d878185612d67565b9350612d97818560208601612185565b80840191505092915050565b6000612daf8284612d72565b915081905092915050565b7f696e73756666696365696e742042616c616e6365000000000000000000000000600082015250565b6000612df0601483612174565b9150612dfb82612dba565b602082019050919050565b60006020820190508181036000830152612e1f81612de3565b905091905056fea26469706673582212204191b739aab7201eba8f73c6dee12db68df1d1004370c36e04721b1b928bd4c764736f6c63430008130033",
  "linkReferences": {},
  "deployedLinkReferences": {}
}