{
  "_format": "hh-sol-artifact-1",
  "contractName": "Ticket",
  "sourceName": "contracts/Ticket.sol",
  "abi": [
    {
      "inputs": [],
      "stateMutability": "nonpayable",
      "type": "constructor"
    },
    {
      "inputs": [],
      "name": "ContractBalance",
      "outputs": [
        {
          "internalType": "uint256",
          "name": "",
          "type": "uint256"
        }
      ],
      "stateMutability": "view",
      "type": "function"
    },
    {
      "inputs": [
        {
          "internalType": "address",
          "name": "to",
          "type": "address"
        },
        {
          "internalType": "uint256",
          "name": "quantity",
          "type": "uint256"
        },
        {
          "internalType": "uint256",
          "name": "_eventId",
          "type": "uint256"
        },
        {
          "internalType": "string",
          "name": "_eventName",
          "type": "string"
        }
      ],
      "name": "TransferTickets",
      "outputs": [
        {
          "internalType": "bool",
          "name": "",
          "type": "bool"
        }
      ],
      "stateMutability": "nonpayable",
      "type": "function"
    },
    {
      "inputs": [
        {
          "internalType": "uint256",
          "name": "",
          "type": "uint256"
        }
      ],
      "name": "allEvents",
      "outputs": [
        {
          "internalType": "uint256",
          "name": "id",
          "type": "uint256"
        },
        {
          "internalType": "string",
          "name": "name",
          "type": "string"
        },
        {
          "internalType": "string",
          "name": "venue",
          "type": "string"
        },
        {
          "internalType": "uint256",
          "name": "time",
          "type": "uint256"
        },
        {
          "internalType": "uint256",
          "name": "totalTkts",
          "type": "uint256"
        },
        {
          "internalType": "uint256",
          "name": "availTkts",
          "type": "uint256"
        },
        {
          "internalType": "uint256",
          "name": "tktPrice",
          "type": "uint256"
        },
        {
          "internalType": "address",
          "name": "owner",
          "type": "address"
        }
      ],
      "stateMutability": "view",
      "type": "function"
    },
    {
      "inputs": [
        {
          "internalType": "address",
          "name": "user",
          "type": "address"
        },
        {
          "internalType": "uint256",
          "name": "eventId",
          "type": "uint256"
        }
      ],
      "name": "checkTickets",
      "outputs": [
        {
          "internalType": "uint256",
          "name": "",
          "type": "uint256"
        }
      ],
      "stateMutability": "view",
      "type": "function"
    },
    {
      "inputs": [
        {
          "internalType": "string",
          "name": "_name",
          "type": "string"
        },
        {
          "internalType": "string",
          "name": "_venue",
          "type": "string"
        },
        {
          "internalType": "uint256",
          "name": "_time",
          "type": "uint256"
        },
        {
          "internalType": "uint256",
          "name": "_totalTkts",
          "type": "uint256"
        },
        {
          "internalType": "uint256",
          "name": "_tktPrice",
          "type": "uint256"
        }
      ],
      "name": "createEvent",
      "outputs": [
        {
          "internalType": "bool",
          "name": "",
          "type": "bool"
        }
      ],
      "stateMutability": "payable",
      "type": "function"
    },
    {
      "inputs": [],
      "name": "developer",
      "outputs": [
        {
          "internalType": "address",
          "name": "",
          "type": "address"
        }
      ],
      "stateMutability": "view",
      "type": "function"
    },
    {
      "inputs": [
        {
          "internalType": "uint256",
          "name": "eventId",
          "type": "uint256"
        },
        {
          "internalType": "string",
          "name": "eventName",
          "type": "string"
        }
      ],
      "name": "getSoldtktAmount",
      "outputs": [
        {
          "internalType": "bool",
          "name": "",
          "type": "bool"
        }
      ],
      "stateMutability": "nonpayable",
      "type": "function"
    },
    {
      "inputs": [
        {
          "internalType": "uint256",
          "name": "_eventIndex",
          "type": "uint256"
        },
        {
          "internalType": "string",
          "name": "_eventName",
          "type": "string"
        },
        {
          "internalType": "uint256",
          "name": "_tkts",
          "type": "uint256"
        }
      ],
      "name": "purchaseTkt",
      "outputs": [],
      "stateMutability": "payable",
      "type": "function"
    },
    {
      "inputs": [
        {
          "internalType": "uint256",
          "name": "_id",
          "type": "uint256"
        }
      ],
      "name": "searchEventById",
      "outputs": [
        {
          "components": [
            {
              "internalType": "uint256",
              "name": "id",
              "type": "uint256"
            },
            {
              "internalType": "string",
              "name": "name",
              "type": "string"
            },
            {
              "internalType": "string",
              "name": "venue",
              "type": "string"
            },
            {
              "internalType": "uint256",
              "name": "time",
              "type": "uint256"
            },
            {
              "internalType": "uint256",
              "name": "totalTkts",
              "type": "uint256"
            },
            {
              "internalType": "uint256",
              "name": "availTkts",
              "type": "uint256"
            },
            {
              "internalType": "uint256",
              "name": "tktPrice",
              "type": "uint256"
            },
            {
              "internalType": "address",
              "name": "owner",
              "type": "address"
            }
          ],
          "internalType": "struct Ticket.Event",
          "name": "",
          "type": "tuple"
        }
      ],
      "stateMutability": "view",
      "type": "function"
    },
    {
      "inputs": [
        {
          "internalType": "string",
          "name": "_name",
          "type": "string"
        }
      ],
      "name": "searchEventByName",
      "outputs": [
        {
          "components": [
            {
              "internalType": "uint256",
              "name": "id",
              "type": "uint256"
            },
            {
              "internalType": "string",
              "name": "name",
              "type": "string"
            },
            {
              "internalType": "string",
              "name": "venue",
              "type": "string"
            },
            {
              "internalType": "uint256",
              "name": "time",
              "type": "uint256"
            },
            {
              "internalType": "uint256",
              "name": "totalTkts",
              "type": "uint256"
            },
            {
              "internalType": "uint256",
              "name": "availTkts",
              "type": "uint256"
            },
            {
              "internalType": "uint256",
              "name": "tktPrice",
              "type": "uint256"
            },
            {
              "internalType": "address",
              "name": "owner",
              "type": "address"
            }
          ],
          "internalType": "struct Ticket.Event",
          "name": "",
          "type": "tuple"
        }
      ],
      "stateMutability": "view",
      "type": "function"
    },
    {
      "inputs": [
        {
          "internalType": "address",
          "name": "",
          "type": "address"
        },
        {
          "internalType": "uint256",
          "name": "",
          "type": "uint256"
        }
      ],
      "name": "tktHolders",
      "outputs": [
        {
          "internalType": "uint256",
          "name": "",
          "type": "uint256"
        }
      ],
      "stateMutability": "view",
      "type": "function"
    },
    {
      "inputs": [],
      "name": "totalEvents",
      "outputs": [
        {
          "internalType": "uint256",
          "name": "",
          "type": "uint256"
        }
      ],
      "stateMutability": "view",
      "type": "function"
    },
    {
      "inputs": [
        {
          "internalType": "uint256",
          "name": "_bal",
          "type": "uint256"
        }
      ],
      "name": "withdrawBalance",
      "outputs": [],
      "stateMutability": "nonpayable",
      "type": "function"
    }
  ],
  "bytecode": "0x60a060405234801561001057600080fd5b503373ffffffffffffffffffffffffffffffffffffffff1660808173ffffffffffffffffffffffffffffffffffffffff168152505060805161256d610067600039600081816113da0152611443015261256d6000f3fe6080604052600436106100c25760003560e01c80635282fc001161007f578063b5eb8f5611610059578063b5eb8f56146102b3578063ba870686146102f0578063ca4b208b1461031b578063da76d5cd14610346576100c2565b80635282fc00146101fc578063860cfe9114610239578063887ff9a814610276576100c2565b8063241c5cd0146100c757806325c6bfe3146101045780632f88d5c7146101205780633b6680591461015d5780633bec5cff146101885780633c2fc56c146101cc575b600080fd5b3480156100d357600080fd5b506100ee60048036038101906100e991906117f6565b61036f565b6040516100fb9190611845565b60405180910390f35b61011e600480360381019061011991906119a6565b610394565b005b34801561012c57600080fd5b50610147600480360381019061014291906117f6565b61051c565b6040516101549190611845565b60405180910390f35b34801561016957600080fd5b5061017261058a565b60405161017f9190611845565b60405180910390f35b34801561019457600080fd5b506101af60048036038101906101aa9190611a15565b610594565b6040516101c3989796959493929190611ad0565b60405180910390f35b6101e660048036038101906101e19190611b5c565b61070c565b6040516101f39190611c2a565b60405180910390f35b34801561020857600080fd5b50610223600480360381019061021e9190611c45565b6108b7565b6040516102309190611c2a565b60405180910390f35b34801561024557600080fd5b50610260600480360381019061025b9190611a15565b610b6c565b60405161026d9190611dc0565b60405180910390f35b34801561028257600080fd5b5061029d60048036038101906102989190611de2565b610dca565b6040516102aa9190611c2a565b60405180910390f35b3480156102bf57600080fd5b506102da60048036038101906102d59190611e65565b6110fd565b6040516102e79190611dc0565b60405180910390f35b3480156102fc57600080fd5b506103056113d2565b6040516103129190611845565b60405180910390f35b34801561032757600080fd5b506103306113d8565b60405161033d9190611eae565b60405180910390f35b34801561035257600080fd5b5061036d60048036038101906103689190611a15565b6113fc565b005b6002602052816000526040600020602052806000526040600020600091509150505481565b600115156103a284846114ab565b1515146103e4576040517f08c379a00000000000000000000000000000000000000000000000000000000081526004016103db90611f15565b60405180910390fd5b60006001600085815260200190815260200160002090508181600501541015610442576040517f08c379a000000000000000000000000000000000000000000000000000000000815260040161043990611f81565b60405180910390fd5b348282600601546104539190611fd0565b1115610494576040517f08c379a000000000000000000000000000000000000000000000000000000000815260040161048b9061205e565b60405180910390fd5b818160050160008282546104a8919061207e565b9250508190555081600260003373ffffffffffffffffffffffffffffffffffffffff1673ffffffffffffffffffffffffffffffffffffffff1681526020019081526020016000206000868152602001908152602001600020600082825461050f91906120b2565b9250508190555050505050565b60008054821061052b57600080fd5b6000600260008573ffffffffffffffffffffffffffffffffffffffff1673ffffffffffffffffffffffffffffffffffffffff16815260200190815260200160002060008481526020019081526020016000205490508091505092915050565b6000600354905090565b60016020528060005260406000206000915090508060000154908060010180546105bd90612115565b80601f01602080910402602001604051908101604052809291908181526020018280546105e990612115565b80156106365780601f1061060b57610100808354040283529160200191610636565b820191906000526020600020905b81548152906001019060200180831161061957829003601f168201915b50505050509080600201805461064b90612115565b80601f016020809104026020016040519081016040528092919081815260200182805461067790612115565b80156106c45780601f10610699576101008083540402835291602001916106c4565b820191906000526020600020905b8154815290600101906020018083116106a757829003601f168201915b5050505050908060030154908060040154908060050154908060060154908060070160009054906101000a900473ffffffffffffffffffffffffffffffffffffffff16905088565b600066038d7ea4c68000341015610758576040517f08c379a000000000000000000000000000000000000000000000000000000000815260040161074f90612192565b60405180910390fd5b83421061076457600080fd5b600060405180610100016040528060005481526020018881526020018781526020018681526020018581526020018581526020018481526020013373ffffffffffffffffffffffffffffffffffffffff1681525090508060016000805481526020019081526020016000206000820151816000015560208201518160010190816107ee919061235e565b506040820151816002019081610804919061235e565b50606082015181600301556080820151816004015560a0820151816005015560c0820151816006015560e08201518160070160006101000a81548173ffffffffffffffffffffffffffffffffffffffff021916908373ffffffffffffffffffffffffffffffffffffffff160217905550905050600160008082825461088991906120b2565b9250508190555034600360008282546108a291906120b2565b92505081905550600191505095945050505050565b6000600115156108c784846114ab565b1515146108d357600080fd5b600060016000858152602001908152602001600020604051806101000160405290816000820154815260200160018201805461090e90612115565b80601f016020809104026020016040519081016040528092919081815260200182805461093a90612115565b80156109875780601f1061095c57610100808354040283529160200191610987565b820191906000526020600020905b81548152906001019060200180831161096a57829003601f168201915b505050505081526020016002820180546109a090612115565b80601f01602080910402602001604051908101604052809291908181526020018280546109cc90612115565b8015610a195780601f106109ee57610100808354040283529160200191610a19565b820191906000526020600020905b8154815290600101906020018083116109fc57829003601f168201915b50505050508152602001600382015481526020016004820154815260200160058201548152602001600682015481526020016007820160009054906101000a900473ffffffffffffffffffffffffffffffffffffffff1673ffffffffffffffffffffffffffffffffffffffff1673ffffffffffffffffffffffffffffffffffffffff1681525050905080606001514211610ab257600080fd5b3373ffffffffffffffffffffffffffffffffffffffff168160e0015173ffffffffffffffffffffffffffffffffffffffff1614610aee57600080fd5b60008160c001518260a001518360800151610b09919061207e565b610b139190611fd0565b90508160e0015173ffffffffffffffffffffffffffffffffffffffff166108fc829081150290604051600060405180830381858888f19350505050158015610b5f573d6000803e3d6000fd5b5060019250505092915050565b610b746116f3565b6000548210610bf75760405180610100016040528060008152602001604051806020016040528060008152508152602001604051806020016040528060008152508152602001600081526020016000815260200160008152602001600081526020013373ffffffffffffffffffffffffffffffffffffffff168152509050610dc5565b600160008381526020019081526020016000206040518061010001604052908160008201548152602001600182018054610c3090612115565b80601f0160208091040260200160405190810160405280929190818152602001828054610c5c90612115565b8015610ca95780601f10610c7e57610100808354040283529160200191610ca9565b820191906000526020600020905b815481529060010190602001808311610c8c57829003601f168201915b50505050508152602001600282018054610cc290612115565b80601f0160208091040260200160405190810160405280929190818152602001828054610cee90612115565b8015610d3b5780601f10610d1057610100808354040283529160200191610d3b565b820191906000526020600020905b815481529060010190602001808311610d1e57829003601f168201915b50505050508152602001600382015481526020016004820154815260200160058201548152602001600682015481526020016007820160009054906101000a900473ffffffffffffffffffffffffffffffffffffffff1673ffffffffffffffffffffffffffffffffffffffff1673ffffffffffffffffffffffffffffffffffffffff168152505090505b919050565b600060011515610dda84846114ab565b151514610de657600080fd5b83600260003373ffffffffffffffffffffffffffffffffffffffff1673ffffffffffffffffffffffffffffffffffffffff1681526020019081526020016000206000858152602001908152602001600020541015610e4357600080fd5b6000600160008581526020019081526020016000206040518061010001604052908160008201548152602001600182018054610e7e90612115565b80601f0160208091040260200160405190810160405280929190818152602001828054610eaa90612115565b8015610ef75780601f10610ecc57610100808354040283529160200191610ef7565b820191906000526020600020905b815481529060010190602001808311610eda57829003601f168201915b50505050508152602001600282018054610f1090612115565b80601f0160208091040260200160405190810160405280929190818152602001828054610f3c90612115565b8015610f895780601f10610f5e57610100808354040283529160200191610f89565b820191906000526020600020905b815481529060010190602001808311610f6c57829003601f168201915b50505050508152602001600382015481526020016004820154815260200160058201548152602001600682015481526020016007820160009054906101000a900473ffffffffffffffffffffffffffffffffffffffff1673ffffffffffffffffffffffffffffffffffffffff1673ffffffffffffffffffffffffffffffffffffffff168152505090504281606001511161102257600080fd5b84600260003373ffffffffffffffffffffffffffffffffffffffff1673ffffffffffffffffffffffffffffffffffffffff16815260200190815260200160002060008681526020019081526020016000206000828254611082919061207e565b9250508190555084600260008873ffffffffffffffffffffffffffffffffffffffff1673ffffffffffffffffffffffffffffffffffffffff168152602001908152602001600020600086815260200190815260200160002060008282546110e991906120b2565b925050819055506001915050949350505050565b6111056116f3565b60005b60005481101561135657600060016000838152602001908152602001600020604051806101000160405290816000820154815260200160018201805461114d90612115565b80601f016020809104026020016040519081016040528092919081815260200182805461117990612115565b80156111c65780601f1061119b576101008083540402835291602001916111c6565b820191906000526020600020905b8154815290600101906020018083116111a957829003601f168201915b505050505081526020016002820180546111df90612115565b80601f016020809104026020016040519081016040528092919081815260200182805461120b90612115565b80156112585780601f1061122d57610100808354040283529160200191611258565b820191906000526020600020905b81548152906001019060200180831161123b57829003601f168201915b50505050508152602001600382015481526020016004820154815260200160058201548152602001600682015481526020016007820160009054906101000a900473ffffffffffffffffffffffffffffffffffffffff1673ffffffffffffffffffffffffffffffffffffffff1673ffffffffffffffffffffffffffffffffffffffff1681525050905080602001516040516020016112f6919061246c565b604051602081830303815290604052805190602001208460405160200161131d919061246c565b60405160208183030381529060405280519060200120036113425780925050506113cd565b50808061134e90612483565b915050611108565b5060405180610100016040528060008152602001604051806020016040528060008152508152602001604051806020016040528060008152508152602001600081526020016000815260200160008152602001600081526020013373ffffffffffffffffffffffffffffffffffffffff1681525090505b919050565b60005481565b7f000000000000000000000000000000000000000000000000000000000000000081565b600354811115611441576040517f08c379a000000000000000000000000000000000000000000000000000000000815260040161143890612517565b60405180910390fd5b7f000000000000000000000000000000000000000000000000000000000000000073ffffffffffffffffffffffffffffffffffffffff166108fc829081150290604051600060405180830381858888f193505050501580156114a7573d6000803e3d6000fd5b5050565b600080548310156116e85760006001600085815260200190815260200160002060405180610100016040529081600082015481526020016001820180546114f190612115565b80601f016020809104026020016040519081016040528092919081815260200182805461151d90612115565b801561156a5780601f1061153f5761010080835404028352916020019161156a565b820191906000526020600020905b81548152906001019060200180831161154d57829003601f168201915b5050505050815260200160028201805461158390612115565b80601f01602080910402602001604051908101604052809291908181526020018280546115af90612115565b80156115fc5780601f106115d1576101008083540402835291602001916115fc565b820191906000526020600020905b8154815290600101906020018083116115df57829003601f168201915b50505050508152602001600382015481526020016004820154815260200160058201548152602001600682015481526020016007820160009054906101000a900473ffffffffffffffffffffffffffffffffffffffff1673ffffffffffffffffffffffffffffffffffffffff1673ffffffffffffffffffffffffffffffffffffffff16815250509050806020015160405160200161169a919061246c565b60405160208183030381529060405280519060200120836040516020016116c1919061246c565b60405160208183030381529060405280519060200120036116e65760019150506116ed565b505b600090505b92915050565b60405180610100016040528060008152602001606081526020016060815260200160008152602001600081526020016000815260200160008152602001600073ffffffffffffffffffffffffffffffffffffffff1681525090565b6000604051905090565b600080fd5b600080fd5b600073ffffffffffffffffffffffffffffffffffffffff82169050919050565b600061178d82611762565b9050919050565b61179d81611782565b81146117a857600080fd5b50565b6000813590506117ba81611794565b92915050565b6000819050919050565b6117d3816117c0565b81146117de57600080fd5b50565b6000813590506117f0816117ca565b92915050565b6000806040838503121561180d5761180c611758565b5b600061181b858286016117ab565b925050602061182c858286016117e1565b9150509250929050565b61183f816117c0565b82525050565b600060208201905061185a6000830184611836565b92915050565b600080fd5b600080fd5b6000601f19601f8301169050919050565b7f4e487b7100000000000000000000000000000000000000000000000000000000600052604160045260246000fd5b6118b38261186a565b810181811067ffffffffffffffff821117156118d2576118d161187b565b5b80604052505050565b60006118e561174e565b90506118f182826118aa565b919050565b600067ffffffffffffffff8211156119115761191061187b565b5b61191a8261186a565b9050602081019050919050565b82818337600083830152505050565b6000611949611944846118f6565b6118db565b90508281526020810184848401111561196557611964611865565b5b611970848285611927565b509392505050565b600082601f83011261198d5761198c611860565b5b813561199d848260208601611936565b91505092915050565b6000806000606084860312156119bf576119be611758565b5b60006119cd868287016117e1565b935050602084013567ffffffffffffffff8111156119ee576119ed61175d565b5b6119fa86828701611978565b9250506040611a0b868287016117e1565b9150509250925092565b600060208284031215611a2b57611a2a611758565b5b6000611a39848285016117e1565b91505092915050565b600081519050919050565b600082825260208201905092915050565b60005b83811015611a7c578082015181840152602081019050611a61565b60008484015250505050565b6000611a9382611a42565b611a9d8185611a4d565b9350611aad818560208601611a5e565b611ab68161186a565b840191505092915050565b611aca81611782565b82525050565b600061010082019050611ae6600083018b611836565b8181036020830152611af8818a611a88565b90508181036040830152611b0c8189611a88565b9050611b1b6060830188611836565b611b286080830187611836565b611b3560a0830186611836565b611b4260c0830185611836565b611b4f60e0830184611ac1565b9998505050505050505050565b600080600080600060a08688031215611b7857611b77611758565b5b600086013567ffffffffffffffff811115611b9657611b9561175d565b5b611ba288828901611978565b955050602086013567ffffffffffffffff811115611bc357611bc261175d565b5b611bcf88828901611978565b9450506040611be0888289016117e1565b9350506060611bf1888289016117e1565b9250506080611c02888289016117e1565b9150509295509295909350565b60008115159050919050565b611c2481611c0f565b82525050565b6000602082019050611c3f6000830184611c1b565b92915050565b60008060408385031215611c5c57611c5b611758565b5b6000611c6a858286016117e1565b925050602083013567ffffffffffffffff811115611c8b57611c8a61175d565b5b611c9785828601611978565b9150509250929050565b611caa816117c0565b82525050565b600082825260208201905092915050565b6000611ccc82611a42565b611cd68185611cb0565b9350611ce6818560208601611a5e565b611cef8161186a565b840191505092915050565b611d0381611782565b82525050565b600061010083016000830151611d226000860182611ca1565b5060208301518482036020860152611d3a8282611cc1565b91505060408301518482036040860152611d548282611cc1565b9150506060830151611d696060860182611ca1565b506080830151611d7c6080860182611ca1565b5060a0830151611d8f60a0860182611ca1565b5060c0830151611da260c0860182611ca1565b5060e0830151611db560e0860182611cfa565b508091505092915050565b60006020820190508181036000830152611dda8184611d09565b905092915050565b60008060008060808587031215611dfc57611dfb611758565b5b6000611e0a878288016117ab565b9450506020611e1b878288016117e1565b9350506040611e2c878288016117e1565b925050606085013567ffffffffffffffff811115611e4d57611e4c61175d565b5b611e5987828801611978565b91505092959194509250565b600060208284031215611e7b57611e7a611758565b5b600082013567ffffffffffffffff811115611e9957611e9861175d565b5b611ea584828501611978565b91505092915050565b6000602082019050611ec36000830184611ac1565b92915050565b7f6e6f742065786973740000000000000000000000000000000000000000000000600082015250565b6000611eff600983611a4d565b9150611f0a82611ec9565b602082019050919050565b60006020820190508181036000830152611f2e81611ef2565b9050919050565b7f6176616c6920746b747320697373756500000000000000000000000000000000600082015250565b6000611f6b601083611a4d565b9150611f7682611f35565b602082019050919050565b60006020820190508181036000830152611f9a81611f5e565b9050919050565b7f4e487b7100000000000000000000000000000000000000000000000000000000600052601160045260246000fd5b6000611fdb826117c0565b9150611fe6836117c0565b9250828202611ff4816117c0565b9150828204841483151761200b5761200a611fa1565b5b5092915050565b7f706179616d656e74206973737565000000000000000000000000000000000000600082015250565b6000612048600e83611a4d565b915061205382612012565b602082019050919050565b600060208201905081810360008301526120778161203b565b9050919050565b6000612089826117c0565b9150612094836117c0565b92508282039050818111156120ac576120ab611fa1565b5b92915050565b60006120bd826117c0565b91506120c8836117c0565b92508282019050808211156120e0576120df611fa1565b5b92915050565b7f4e487b7100000000000000000000000000000000000000000000000000000000600052602260045260246000fd5b6000600282049050600182168061212d57607f821691505b6020821081036121405761213f6120e6565b5b50919050565b7f6e6f7420656e6f75676820726567697374726174696f6e206665650000000000600082015250565b600061217c601b83611a4d565b915061218782612146565b602082019050919050565b600060208201905081810360008301526121ab8161216f565b9050919050565b60008190508160005260206000209050919050565b60006020601f8301049050919050565b600082821b905092915050565b6000600883026122147fffffffffffffffffffffffffffffffffffffffffffffffffffffffffffffffff826121d7565b61221e86836121d7565b95508019841693508086168417925050509392505050565b6000819050919050565b600061225b612256612251846117c0565b612236565b6117c0565b9050919050565b6000819050919050565b61227583612240565b61228961228182612262565b8484546121e4565b825550505050565b600090565b61229e612291565b6122a981848461226c565b505050565b5b818110156122cd576122c2600082612296565b6001810190506122af565b5050565b601f821115612312576122e3816121b2565b6122ec846121c7565b810160208510156122fb578190505b61230f612307856121c7565b8301826122ae565b50505b505050565b600082821c905092915050565b600061233560001984600802612317565b1980831691505092915050565b600061234e8383612324565b9150826002028217905092915050565b61236782611a42565b67ffffffffffffffff8111156123805761237f61187b565b5b61238a8254612115565b6123958282856122d1565b600060209050601f8311600181146123c857600084156123b6578287015190505b6123c08582612342565b865550612428565b601f1984166123d6866121b2565b60005b828110156123fe578489015182556001820191506020850194506020810190506123d9565b8683101561241b5784890151612417601f891682612324565b8355505b6001600288020188555050505b505050505050565b600081905092915050565b600061244682611a42565b6124508185612430565b9350612460818560208601611a5e565b80840191505092915050565b6000612478828461243b565b915081905092915050565b600061248e826117c0565b91507fffffffffffffffffffffffffffffffffffffffffffffffffffffffffffffffff82036124c0576124bf611fa1565b5b600182019050919050565b7f696e73756666696365696e742042616c616e6365000000000000000000000000600082015250565b6000612501601483611a4d565b915061250c826124cb565b602082019050919050565b60006020820190508181036000830152612530816124f4565b905091905056fea2646970667358221220685164fc83eee0a2262ef2d1e2e03947fdfdcdbe66ec342c7ffd5b2eea0fdd5564736f6c63430008130033",
  "linkReferences": {},
  "deployedLinkReferences": {}
}